{
  "d4254dfd429b1c7ab5e88f06e9728670": {
    "options": {
      "jsonrpc": "2.0",
      "method": "web3_sha3",
      "params": [
        "0x68656c6c6f20776f726c64"
      ],
      "id": 64
    },
    "results": {
      "jsonrpc": "2.0",
      "result": "0x47173285a8d7341e5e972fc677286384f802f8ef42a5ec5f03bbfa254cb01fad",
      "id": 64
    }
  },
  "c24f0caaf6d10f03c61a06f624d0e2a7": {
    "options": {
      "jsonrpc": "2.0",
      "method": "net_version",
      "params": [],
      "id": 67
    },
    "results": {
      "jsonrpc": "2.0",
      "result": "1",
      "id": 67
    }
  },
  "26071772a161286619330a5d365e1bba": {
    "options": {
      "jsonrpc": "2.0",
      "method": "eth_protocolVersion",
      "params": [],
      "id": 67
    },
    "results": {
      "jsonrpc": "2.0",
      "result": "63",
      "id": 67
    }
  },
  "4008108986c1a2a8824daae5cc43370a": {
    "options": {
      "jsonrpc": "2.0",
      "method": "eth_getCode",
      "params": [
        "0x5c40ef6f527f4fba68368774e6130ce6515123f2",
        "latest"
      ],
      "id": 1
    },
    "results": {
      "jsonrpc": "2.0",
      "result": "0x606060405236156100825760e060020a6000350463095ea7b3811461008a57806318160ddd146100d057806323b872dd146100d95780633fb27b851461010b57806370a0823114610141578063884b5dc2146101595780638da5cb5b146101d4578063a9059cbb146101e6578063dd62ed3e14610215578063e4b203ef1461023a575b61024e610002565b33600160a060020a03908116600090815260026020908152604080832060043594909416835292905220602435905560015b604080519115158252519081900360200190f35b61025060005481565b6100bc600435602435604435600160a060020a0383166000908152600160205260408120548290101561027f57610002565b61024e600354600160a060020a039081163391909116141580610137575060035460a060020a900460ff165b1561036457610002565b61025060043560016020526000908152604090205481565b6040805160048035808201356020818102858101820190965281855261024e9593946024949093850192918291908501908490808284375094965050505050505060035460009081908190600160a060020a0390811633919091161415806101ca575060035460a060020a900460ff165b1561038a57610002565b610262600354600160a060020a031681565b61024e600435602435600160a060020a0333166000908152600160205260409020548190101561042b57610002565b6002602090815260043560009081526040808220909252602435815220546102509081565b6100bc60035460ff60a060020a9091041681565b005b60408051918252519081900360200190f35b60408051600160a060020a03929092168252519081900360200190f35b600160a060020a03831660009081526001602052604090205480830110156102a657610002565b600160a060020a03848116600090815260026020908152604080832033909416835292905220548211156102d957610002565b600160a060020a03848116600081815260016020908152604080832080548890039055878516808452818420805489019055848452600283528184203390961684529482529182902080548790039055815186815291517fddf252ad1be2c89b69c2b068fc378daa952ba7f163c4a11628f55a4df523b3ef9281900390910190a35060019392505050565b6003805474ff0000000000000000000000000000000000000000191660a060020a179055565b600092505b835183101561042557600160a060020a0384848151811015610002579060200190602002015116915060a060020a84848151811015610002576020908102909101810151600160a060020a0385166000908152600190925260408220549290049250141561041957600160a060020a03821660009081526001602052604081208290558054820190555b6001929092019161038f565b50505050565b600160a060020a038216600090815260016020526040902054818101101561045257610002565b600160a060020a03338116600081815260016020908152604080832080548790039055938616808352918490208054860190558351858152935191937fddf252ad1be2c89b69c2b068fc378daa952ba7f163c4a11628f55a4df523b3ef929081900390910190a3505056",
      "id": 1
    }
  },
  "aecda9f90d59df267abbc38fc1a96dd7": {
    "options": {
      "jsonrpc": "2.0",
      "method": "eth_getStorageAt",
      "params": [
        "0x295a70b2de5e3953354a6a8344e616ed314d7251",
        "0x6661e9d6d8b923d5bbaab1b96e1dd51ff6ea2a93520fdc9eb75d059238b8c5e9",
        "latest"
      ],
      "id": 1
    },
    "results": {
      "jsonrpc": "2.0",
      "result": "0x0000000000000000000000000000000000000000000000000000000000000000",
      "id": 1
    }
  },
  "a72fdad26af83c98c24e1e8781d3e49f": {
    "options": {
      "jsonrpc": "2.0",
      "method": "eth_getBlockTransactionCountByHash",
      "params": [
        "0x0d31621c4902fb957e30149d902820c5a4e567d76e5703831a0a3becfdd4fba5"
      ],
      "id": 1
    },
    "results": {
      "jsonrpc": "2.0",
      "result": "0x6",
      "id": 1
    }
  },
  "777c05e613578ad0714d9ad2f151a74b": {
    "options": {
      "jsonrpc": "2.0",
      "method": "eth_getBlockTransactionCountByNumber",
      "params": [
        "0x3702a2"
      ],
      "id": 1
    },
    "results": {
      "jsonrpc": "2.0",
      "result": "0x6",
      "id": 1
    }
  },
  "2cd43bf460b4a712ab477dd20a8fbd07": {
    "options": {
      "jsonrpc": "2.0",
      "method": "eth_getUncleCountByBlockHash",
      "params": [
        "0x7153403dca6b3587aaddc286649426e6089bd36c66935a025cc49a4a02c5fe8f"
      ],
      "id": 1
    },
    "results": {
      "jsonrpc": "2.0",
      "result": "0x1",
      "id": 1
    }
  },
  "8c3bf09d6482280ed314136326eb8e58": {
    "options": {
      "jsonrpc": "2.0",
      "method": "eth_getUncleCountByBlockNumber",
      "params": [
        "0x370289"
      ],
      "id": 1
    },
    "results": {
      "jsonrpc": "2.0",
      "result": "0x1",
      "id": 1
    }
  },
  "8493a71fc608ddaed68843a812e941b8": {
    "options": {
      "jsonrpc": "2.0",
      "method": "eth_getBlockByHash",
      "params": [
        "0x7153403dca6b3587aaddc286649426e6089bd36c66935a025cc49a4a02c5fe8f",
        false
      ],
      "id": 1
    },
    "results": {
      "jsonrpc": "2.0",
      "result": {
        "author": "0x61c808d82a3ac53231750dadc13c777b59310bd9",
        "difficulty": "0x115cd0ae4e9e7",
        "extraData": "0xe4b883e5bda9e7a59ee4bb99e9b1bc",
        "gasLimit": "0x41738e",
        "gasUsed": "0x2f14d",
        "hash": "0x7153403dca6b3587aaddc286649426e6089bd36c66935a025cc49a4a02c5fe8f",
        "logsBloom": "0x00000000080000000000000000000000000000000400000000000000000000000000000000000000000000000080000008000000000000000000000000000800000000000000000000000000000000008001000000000000000000000000000000000000000000000000000000000000000000000000000000000000000000000000000000000000000000000000000000000000000000000000000000008000000000000040000000000000000000800000000000000000000000000000000000000000400000000000000000000000000000000008000000000000000000000000000000100100000000000000000000000000400000000000000000000000",
        "miner": "0x61c808d82a3ac53231750dadc13c777b59310bd9",
        "mixHash": "0xc690bc7f4b61be0baf9dda4b0a95f6a47a86e6fb13f96a36d28b46cf83c90034",
        "nonce": "0x95653d0c120015b5",
        "number": "0x370289",
        "parentHash": "0x99fc18de44cbf71f430469d9741dcd3ea227bad3f398f930c5c53b31d6b61add",
        "receiptsRoot": "0x5b7e218076f765123fff842006f5a6012f1ab08d6a438ca0faa2c999038acadd",
        "sealFields": [
          "0xa0c690bc7f4b61be0baf9dda4b0a95f6a47a86e6fb13f96a36d28b46cf83c90034",
          "0x8895653d0c120015b5"
        ],
        "sha3Uncles": "0xa35ce310dcaf13fbcede5bfa9a83bf35995efda048af9a47050fd47827684a5c",
        "size": "0x82e",
        "stateRoot": "0x65c51ca26ac008b984b86944e309cb2ddfbcf3da777751230846378a6d0d1b14",
        "timestamp": "0x5900e59b",
        "totalDifficulty": "0xc63af9692a628505b",
        "transactions": [
          "0xfdb4a7fdb24aefd7295d2bfb704d3eadf76081079918f4a6eb9069fa713f401e",
          "0x6ba0b1c8f164c392523f098b7596b1a2e255e3e620bcb01622e0e532e73bc815",
          "0xbd80f567043f60e61ba65a739ddc1e848708d9bcd47402c448435977413ab1e2",
          "0x68fb40345e983d7c16234404e35d0534e8e4e4175c33662f058a148f6988777c",
          "0xe80cadbba11df7365f7b0b46d91c222382bd4fb47d97001d3973d8441b64f713",
          "0x7fd5c3d6089c5263f5e8b2faa11c84065692abe5f80067a982ce34cd38403c26",
          "0x0ac9a7d2ae0e3844e010d3d9deeddfda7ba0c5fe0ae39df60542c3e8d9dd889a",
          "0x66e29586785a8acb94179d66cfc88485f6b4c16cfc3539322f0c57073aae23d0",
          "0x5839f440d0e0d62b76f3ae6063fa6e2e5cf401a180fab80b59cc980e46a027d6"
        ],
        "transactionsRoot": "0x9c1661722bc1c99a5302cb78d7324240525d54c8c847068618dbaac4202c6222",
        "uncles": [
          "0xcbbeeed8ec1184886fb69e65c13db3a92be665654df3607ac6d3d07317dcb489"
        ]
      },
      "id": 1
    }
  },
  "a606095282f3a3c7a66f217e5500efd7": {
    "options": {
      "jsonrpc": "2.0",
      "method": "eth_getBlockByNumber",
      "params": [
        "0x1b4",
        false
      ],
      "id": 1
    },
    "results": {
      "jsonrpc": "2.0",
      "result": {
        "author": "0xbb7b8287f3f0a933474a79eae42cbca977791171",
        "difficulty": "0x4ea3f27bc",
        "extraData": "0x476574682f4c5649562f76312e302e302f6c696e75782f676f312e342e32",
        "gasLimit": "0x1388",
        "gasUsed": "0x0",
        "hash": "0xdc0818cf78f21a8e70579cb46a43643f78291264dda342ae31049421c82d21ae",
        "logsBloom": "0x00000000000000000000000000000000000000000000000000000000000000000000000000000000000000000000000000000000000000000000000000000000000000000000000000000000000000000000000000000000000000000000000000000000000000000000000000000000000000000000000000000000000000000000000000000000000000000000000000000000000000000000000000000000000000000000000000000000000000000000000000000000000000000000000000000000000000000000000000000000000000000000000000000000000000000000000000000000000000000000000000000000000000000000000000000000",
        "miner": "0xbb7b8287f3f0a933474a79eae42cbca977791171",
        "mixHash": "0x4fffe9ae21f1c9e15207b1f472d5bbdd68c9595d461666602f2be20daf5e7843",
        "nonce": "0x689056015818adbe",
        "number": "0x1b4",
        "parentHash": "0xe99e022112df268087ea7eafaf4790497fd21dbeeb6bd7a1721df161a6657a54",
        "receiptsRoot": "0x56e81f171bcc55a6ff8345e692c0f86e5b48e01b996cadc001622fb5e363b421",
        "sealFields": [
          "0xa04fffe9ae21f1c9e15207b1f472d5bbdd68c9595d461666602f2be20daf5e7843",
          "0x88689056015818adbe"
        ],
        "sha3Uncles": "0x1dcc4de8dec75d7aab85b567b6ccd41ad312451b948a7413f0a142fd40d49347",
        "size": "0x220",
        "stateRoot": "0xddc8b0234c2e0cad087c8b389aa7ef01f7d79b2570bccb77ce48648aa61c904d",
        "timestamp": "0x55ba467c",
        "totalDifficulty": "0x78ed983323d",
        "transactions": [],
        "transactionsRoot": "0x56e81f171bcc55a6ff8345e692c0f86e5b48e01b996cadc001622fb5e363b421",
        "uncles": []
      },
      "id": 1
    }
  },
  "d30474b73ac44b254ba5af334b678d09": {
    "options": {
      "jsonrpc": "2.0",
      "method": "eth_getTransactionByHash",
      "params": [
        "0x5839f440d0e0d62b76f3ae6063fa6e2e5cf401a180fab80b59cc980e46a027d6"
      ],
      "id": 1
    },
    "results": {
      "jsonrpc": "2.0",
      "result": {
        "blockHash": "0x7153403dca6b3587aaddc286649426e6089bd36c66935a025cc49a4a02c5fe8f",
        "blockNumber": "0x370289",
        "condition": null,
        "creates": null,
        "from": "0x2a65aca4d5fc5b5c859090a6c34d164135398226",
        "gas": "0x15f90",
        "gasPrice": "0x5d21dba00",
        "hash": "0x5839f440d0e0d62b76f3ae6063fa6e2e5cf401a180fab80b59cc980e46a027d6",
        "input": "0x",
        "networkId": 1,
        "nonce": "0x20fd48",
        "publicKey": "0x4c3eb5e19c71d8245eaaaba21ef8f94a70e9250848d10ade086f893a7a33a06d7063590e9e6ca88f918d7704840d903298fe802b6047fa7f6d09603eba690c39",
        "r": "0xa2e3c04584ba668696bbac6b9480288cffb1993b8983adc9881a774aa33027df",
        "raw": "0xf8708320fd488505d21dba0083015f9094d052e32facf32a667fec9cf22502fdc28182e38b880f5c4d5f44ee50008026a0a2e3c04584ba668696bbac6b9480288cffb1993b8983adc9881a774aa33027dfa0739846f908f7b2d3bad5dcc6aab502b16c4aa14cc76114c34c97e8233b9eae4d",
        "s": "0x739846f908f7b2d3bad5dcc6aab502b16c4aa14cc76114c34c97e8233b9eae4d",
        "standardV": "0x1",
        "to": "0xd052e32facf32a667fec9cf22502fdc28182e38b",
        "transactionIndex": "0x8",
        "v": "0x26",
        "value": "0xf5c4d5f44ee5000"
      },
      "id": 1
    }
  },
  "6729a28f6e041f1f6115f5c3b93affa9": {
    "options": {
      "jsonrpc": "2.0",
      "method": "eth_getTransactionByBlockHashAndIndex",
      "params": [
        "0x7153403dca6b3587aaddc286649426e6089bd36c66935a025cc49a4a02c5fe8f",
        "0x0"
      ],
      "id": 1
    },
    "results": {
      "jsonrpc": "2.0",
      "result": {
        "blockHash": "0x7153403dca6b3587aaddc286649426e6089bd36c66935a025cc49a4a02c5fe8f",
        "blockNumber": "0x370289",
        "condition": null,
        "creates": null,
        "from": "0x2a65aca4d5fc5b5c859090a6c34d164135398226",
        "gas": "0x15f90",
        "gasPrice": "0x5d21dba00",
        "hash": "0xfdb4a7fdb24aefd7295d2bfb704d3eadf76081079918f4a6eb9069fa713f401e",
        "input": "0x",
        "networkId": 1,
        "nonce": "0x20fd40",
        "publicKey": "0x4c3eb5e19c71d8245eaaaba21ef8f94a70e9250848d10ade086f893a7a33a06d7063590e9e6ca88f918d7704840d903298fe802b6047fa7f6d09603eba690c39",
        "r": "0x55ffc67e5e33bb146dfcffa023a0576ffbc0aabbf7a7b4601fab14650946110e",
        "raw": "0xf8708320fd408505d21dba0083015f90941e37413c2f1fd2b1e423a7dda85ae9cf3b285ccd881009e8f30d97ec008026a055ffc67e5e33bb146dfcffa023a0576ffbc0aabbf7a7b4601fab14650946110ea03270bb661c2898e9531d07d4cb751f93e0bd30d737a4c0783c91c254a3d76749",
        "s": "0x3270bb661c2898e9531d07d4cb751f93e0bd30d737a4c0783c91c254a3d76749",
        "standardV": "0x1",
        "to": "0x1e37413c2f1fd2b1e423a7dda85ae9cf3b285ccd",
        "transactionIndex": "0x0",
        "v": "0x26",
        "value": "0x1009e8f30d97ec00"
      },
      "id": 1
    }
  },
  "ae9084e14cf5bfde938ec018b9bd98bd": {
    "options": {
      "jsonrpc": "2.0",
      "method": "eth_getTransactionReceipt",
      "params": [
        "0x5839f440d0e0d62b76f3ae6063fa6e2e5cf401a180fab80b59cc980e46a027d6"
      ],
      "id": 1
    },
    "results": {
      "jsonrpc": "2.0",
      "result": {
        "blockHash": "0x7153403dca6b3587aaddc286649426e6089bd36c66935a025cc49a4a02c5fe8f",
        "blockNumber": "0x370289",
        "contractAddress": null,
        "cumulativeGasUsed": "0x2f14d",
        "gasUsed": "0x5208",
        "logs": [],
        "logsBloom": "0x00000000000000000000000000000000000000000000000000000000000000000000000000000000000000000000000000000000000000000000000000000000000000000000000000000000000000000000000000000000000000000000000000000000000000000000000000000000000000000000000000000000000000000000000000000000000000000000000000000000000000000000000000000000000000000000000000000000000000000000000000000000000000000000000000000000000000000000000000000000000000000000000000000000000000000000000000000000000000000000000000000000000000000000000000000000",
        "root": "0x2e56c18a6f5c859b7aa1ee353229c355bf0d0deb6219b5d0be7c38e65dbe5dc1",
        "transactionHash": "0x5839f440d0e0d62b76f3ae6063fa6e2e5cf401a180fab80b59cc980e46a027d6",
        "transactionIndex": "0x8"
      },
      "id": 1
    }
  },
  "eff5b9fe6099c2f7969e34f1e9717609": {
    "options": {
      "jsonrpc": "2.0",
      "method": "eth_getUncleByBlockHashAndIndex",
      "params": [
        "0x7153403dca6b3587aaddc286649426e6089bd36c66935a025cc49a4a02c5fe8f",
        "0x0"
      ],
      "id": 1
    },
    "results": {
      "jsonrpc": "2.0",
      "result": {
        "author": "0x52bc44d5378309ee2abf1539bf71de1b7d7be3b5",
        "difficulty": "0x115e7c85df5a5",
        "extraData": "0x6e616e6f706f6f6c2e6f7267",
        "gasLimit": "0x419cfd",
        "gasUsed": "0x31067",
        "hash": "0xcbbeeed8ec1184886fb69e65c13db3a92be665654df3607ac6d3d07317dcb489",
        "logsBloom": "0x00000000000000000000000000000000000000000000000000000000000020000000000000100000000000040000000100000000000000000000000000000000000000000000000080000004008000000000000000000000000000000000000001000000000000000000000000000000004000200000000000000100000000000000000100000000004000000000000000000000000000000000000000000000000000001000000000000000000000000000000000000020000000000000000000000000000000000000000000000000000000004000000000120000000000a00000000800000000000000000000000400000000008000000000000000000000",
        "miner": "0x52bc44d5378309ee2abf1539bf71de1b7d7be3b5",
        "mixHash": "0x74eacb7b6ca840257a6fbf411646e9637dd567f2c908744630379223bbe1a2f9",
        "nonce": "0x18e93a001230655b",
        "number": "0x370287",
        "parentHash": "0x020ece6910d87143793e0f4c1da61af052b6492b0f95f82e310b48b8cb98775c",
        "receiptsRoot": "0x991eb321f9aab5defbd33d4daad76d164085b7cec50c015a8ac493de5b0c24ac",
        "sealFields": [
          "0xa074eacb7b6ca840257a6fbf411646e9637dd567f2c908744630379223bbe1a2f9",
          "0x8818e93a001230655b"
        ],
        "sha3Uncles": "0x1dcc4de8dec75d7aab85b567b6ccd41ad312451b948a7413f0a142fd40d49347",
        "size": "0x4dc",
        "stateRoot": "0xabcbe3532e72f47ed834326fb153f7cc0cf2295decfbd0222a34167b280da2f8",
        "timestamp": "0x5900e574",
        "totalDifficulty": "0xc63ad6ad9d2e570cf",
        "transactions": [],
        "transactionsRoot": "0x662235961619fea05c4391a4f61859349bb005988fb3bd43ef5f7948ef777866",
        "uncles": []
      },
      "id": 1
    }
  },
  "94aa5ac2e2ae04bbba184dc3b4baea15": {
    "options": {
      "jsonrpc": "2.0",
      "method": "eth_getUncleByBlockNumberAndIndex",
      "params": [
        "0x370289",
        "0x0"
      ],
      "id": 1
    },
    "results": {
      "jsonrpc": "2.0",
      "result": {
        "author": "0x52bc44d5378309ee2abf1539bf71de1b7d7be3b5",
        "difficulty": "0x115e7c85df5a5",
        "extraData": "0x6e616e6f706f6f6c2e6f7267",
        "gasLimit": "0x419cfd",
        "gasUsed": "0x31067",
        "hash": "0xcbbeeed8ec1184886fb69e65c13db3a92be665654df3607ac6d3d07317dcb489",
        "logsBloom": "0x00000000000000000000000000000000000000000000000000000000000020000000000000100000000000040000000100000000000000000000000000000000000000000000000080000004008000000000000000000000000000000000000001000000000000000000000000000000004000200000000000000100000000000000000100000000004000000000000000000000000000000000000000000000000000001000000000000000000000000000000000000020000000000000000000000000000000000000000000000000000000004000000000120000000000a00000000800000000000000000000000400000000008000000000000000000000",
        "miner": "0x52bc44d5378309ee2abf1539bf71de1b7d7be3b5",
        "mixHash": "0x74eacb7b6ca840257a6fbf411646e9637dd567f2c908744630379223bbe1a2f9",
        "nonce": "0x18e93a001230655b",
        "number": "0x370287",
        "parentHash": "0x020ece6910d87143793e0f4c1da61af052b6492b0f95f82e310b48b8cb98775c",
        "receiptsRoot": "0x991eb321f9aab5defbd33d4daad76d164085b7cec50c015a8ac493de5b0c24ac",
        "sealFields": [
          "0xa074eacb7b6ca840257a6fbf411646e9637dd567f2c908744630379223bbe1a2f9",
          "0x8818e93a001230655b"
        ],
        "sha3Uncles": "0x1dcc4de8dec75d7aab85b567b6ccd41ad312451b948a7413f0a142fd40d49347",
        "size": "0x4dc",
        "stateRoot": "0xabcbe3532e72f47ed834326fb153f7cc0cf2295decfbd0222a34167b280da2f8",
        "timestamp": "0x5900e574",
        "totalDifficulty": "0xc63ad6ad9d2e570cf",
        "transactions": [],
        "transactionsRoot": "0x662235961619fea05c4391a4f61859349bb005988fb3bd43ef5f7948ef777866",
        "uncles": []
      },
      "id": 1
    }
  },
  "bbe28fbc7ef330dc40326c29f7e9dad6": {
    "options": {
      "jsonrpc": "2.0",
      "method": "eth_getLogs",
      "params": [
        {
          "fromBlock": "0x158061",
          "toBlock": "0x15b449",
          "address": "0xE0B7927c4aF23765Cb51314A0E0521A9645F0E2A"
        }
      ],
      "id": 1
    },
    "results": {
      "jsonrpc": "2.0",
      "result": [
        {
          "address": "0xe0b7927c4af23765cb51314a0e0521a9645f0e2a",
          "blockHash": "0x05f672938f1d6ba8ad058ea378c10b28e24e1d27d6c02c289e6f147663772d09",
          "blockNumber": "0x15b3eb",
          "data": "0x0000000000000000000000000000000000000000000000000000000077359400",
          "logIndex": "0x0",
          "topics": [
            "0xddf252ad1be2c89b69c2b068fc378daa952ba7f163c4a11628f55a4df523b3ef",
            "0x0000000000000000000000007c759bf56e96824347148a4775417f1d3ab47a14",
            "0x0000000000000000000000002ef9aece09cc4b0d96c94018716326773df87081"
          ],
          "transactionHash": "0x25c37a59b7fff9c2a77017f669823c47964e1707b52e0ab173a8737a60aac67b",
          "transactionIndex": "0x1",
          "transactionLogIndex": "0x0",
          "type": "mined"
        },
        {
          "address": "0xe0b7927c4af23765cb51314a0e0521a9645f0e2a",
          "blockHash": "0x05fda554f49a4ddecbbc5cc3b58e4c36f634ad60e50121671759af74d252d5a7",
          "blockNumber": "0x15b3ec",
          "data": "0x0000000000000000000000000000000000000000000000000000008f6c761000",
          "logIndex": "0x2",
          "topics": [
            "0xddf252ad1be2c89b69c2b068fc378daa952ba7f163c4a11628f55a4df523b3ef",
            "0x00000000000000000000000076ba7eda53f90920ee5caaeccf6f77d0089201cd",
            "0x0000000000000000000000006220814f1c645a6fa96cdfed750a7637f855bf83"
          ],
          "transactionHash": "0x7d8e820c536cb0daff1f67e15a8ed23be071053abf01157b84a77c892ec678ad",
          "transactionIndex": "0x1",
          "transactionLogIndex": "0x0",
          "type": "mined"
        },
        {
          "address": "0xe0b7927c4af23765cb51314a0e0521a9645f0e2a",
          "blockHash": "0xd18b0a5fc9e7c7c7aa4b3d8ebdebf5fcf91090379ff050f351df442888617d16",
          "blockNumber": "0x15b3fa",
          "data": "0x00000000000000000000000000000000000000000000000000000055ffd0e3a0",
          "logIndex": "0x2",
          "topics": [
            "0xddf252ad1be2c89b69c2b068fc378daa952ba7f163c4a11628f55a4df523b3ef",
            "0x000000000000000000000000f8fca9e38a8bc846be8ea3b37bb94ea23b475d2f",
            "0x0000000000000000000000005ee02007830d9b7ae4a4c98fd5e9fd125ff7c737"
          ],
          "transactionHash": "0x58f75f3b2bfaec774f798bb614b69da08ca31ca1d183da0e5c41193f9d78bf9f",
          "transactionIndex": "0x4",
          "transactionLogIndex": "0x0",
          "type": "mined"
        },
        {
          "address": "0xe0b7927c4af23765cb51314a0e0521a9645f0e2a",
          "blockHash": "0xa3ba4847a47338574d9abef259fa7768d77dd28fa9419fb2406565619d5681fa",
          "blockNumber": "0x15b3fc",
          "data": "0x00000000000000000000000000000000000000000000000000000001b2cc49e0",
          "logIndex": "0x0",
          "topics": [
            "0xddf252ad1be2c89b69c2b068fc378daa952ba7f163c4a11628f55a4df523b3ef",
            "0x00000000000000000000000033d8e7531c77b0ceefc17b60bb360973e51ac2aa",
            "0x00000000000000000000000033b666518924076d1cc6b8dccf90abcd6b614f97"
          ],
          "transactionHash": "0x9ec4ec87bc05b186b915c4c12c22eb12955c25302bd77ebeaf697dcb6af48837",
          "transactionIndex": "0x0",
          "transactionLogIndex": "0x0",
          "type": "mined"
        },
        {
          "address": "0xe0b7927c4af23765cb51314a0e0521a9645f0e2a",
          "blockHash": "0xa3ba4847a47338574d9abef259fa7768d77dd28fa9419fb2406565619d5681fa",
          "blockNumber": "0x15b3fc",
          "data": "0x000000000000000000000000000000000000000000000000000000174876e800",
          "logIndex": "0x3",
          "topics": [
            "0xddf252ad1be2c89b69c2b068fc378daa952ba7f163c4a11628f55a4df523b3ef",
            "0x00000000000000000000000027f04376aa58841f8bcdb1f0e47e562193779dc6",
            "0x0000000000000000000000007e2eb7dfe75db631e759a4ecde67e2e9c42451eb"
          ],
          "transactionHash": "0xf53d3503675b9da2190efcacfb4a8f175a0f6d816519ce7f966e75acddf6005d",
          "transactionIndex": "0x4",
          "transactionLogIndex": "0x0",
          "type": "mined"
        },
        {
          "address": "0xe0b7927c4af23765cb51314a0e0521a9645f0e2a",
          "blockHash": "0x6856859d3aef25ff96a1e5014edf6ef5714325e7ed2f045b534a3d7e16c3a404",
          "blockNumber": "0x15b3fe",
          "data": "0x000000000000000000000000000000000000000000000000000000003b9aca00",
          "logIndex": "0x2",
          "topics": [
            "0xddf252ad1be2c89b69c2b068fc378daa952ba7f163c4a11628f55a4df523b3ef",
            "0x0000000000000000000000001f14c8687f345f99c99a5d169ffa153af7b89840",
            "0x0000000000000000000000002807955aef18ee85d65cd8322c39cbbfa87b2ac8"
          ],
          "transactionHash": "0x99583b3c3f1fc6e82737b9120961bcbd83bdf5d2cf59d8162da6eaac3e751318",
          "transactionIndex": "0x1",
          "transactionLogIndex": "0x0",
          "type": "mined"
        },
        {
          "address": "0xe0b7927c4af23765cb51314a0e0521a9645f0e2a",
          "blockHash": "0x35dedde6d5f7b1ee0a1d706f63f4498dde813ac62be8c94926d763894e15354a",
          "blockNumber": "0x15b401",
          "data": "0x0000000000000000000000000000000000000000000000000000000000989680",
          "logIndex": "0x6",
          "topics": [
            "0xddf252ad1be2c89b69c2b068fc378daa952ba7f163c4a11628f55a4df523b3ef",
            "0x0000000000000000000000009128814b9b7dc31cae275e860196af35da6967ea",
            "0x000000000000000000000000b951b98d3cca83eb1471a63001d5337368cac118"
          ],
          "transactionHash": "0x4dce85a19098b6c7f6a8ed718e71af567de4e8e1729cf6ff552c2d0b18388aa0",
          "transactionIndex": "0x3",
          "transactionLogIndex": "0x0",
          "type": "mined"
        },
        {
          "address": "0xe0b7927c4af23765cb51314a0e0521a9645f0e2a",
          "blockHash": "0xed92dd11f6a5d9d452a8b9211051ecbc7b17b77bf24a1a76e93a8019366a7e20",
          "blockNumber": "0x15b403",
          "data": "0x0000000000000000000000000000000000000000000000000000000000989680",
          "logIndex": "0x0",
          "topics": [
            "0xddf252ad1be2c89b69c2b068fc378daa952ba7f163c4a11628f55a4df523b3ef",
            "0x00000000000000000000000094365f931215cdeddc1fc8b5047a4a71354a5ffa",
            "0x000000000000000000000000d9c60b1b1660e0804e55fa4fa9f54a5e4c95f389"
          ],
          "transactionHash": "0x8b5c6fa35b4e73f4bca165021b57c3e608a8d851d1ee24eb2b8d79d62c7b3b9c",
          "transactionIndex": "0x0",
          "transactionLogIndex": "0x0",
          "type": "mined"
        },
        {
          "address": "0xe0b7927c4af23765cb51314a0e0521a9645f0e2a",
          "blockHash": "0xe88a815eba6f347818f6f97e1d57e7c0ea12e0a1667b30fbbe62224ef79046ce",
          "blockNumber": "0x15b40b",
          "data": "0x00000000000000000000000000000000000000000000000000000002540be400",
          "logIndex": "0x0",
          "topics": [
            "0xddf252ad1be2c89b69c2b068fc378daa952ba7f163c4a11628f55a4df523b3ef",
            "0x000000000000000000000000ab7b912f451d61f98a7f066ffe6a4aaf62c9e147",
            "0x000000000000000000000000de456771e22cf9886021dafd44306e7b05dca551"
          ],
          "transactionHash": "0xbc34f7895738f04d672be9f156afbf367153f8a29dd3c94e969f295b5a4c55a8",
          "transactionIndex": "0x0",
          "transactionLogIndex": "0x0",
          "type": "mined"
        },
        {
          "address": "0xe0b7927c4af23765cb51314a0e0521a9645f0e2a",
          "blockHash": "0xe88a815eba6f347818f6f97e1d57e7c0ea12e0a1667b30fbbe62224ef79046ce",
          "blockNumber": "0x15b40b",
          "data": "0x000000000000000000000000000000000000000000000000000000003b9aca00",
          "logIndex": "0x1",
          "topics": [
            "0xddf252ad1be2c89b69c2b068fc378daa952ba7f163c4a11628f55a4df523b3ef",
            "0x00000000000000000000000055d1554b08a5311c5c0a0b6464162192f9d2f884",
            "0x00000000000000000000000009b1f1afe588830f853c6200e7535017e703e8aa"
          ],
          "transactionHash": "0x59a4536f5cacf972d3cf14da4ff9061228eb28b96dbb04e3d4ac3d5bf13d9095",
          "transactionIndex": "0x1",
          "transactionLogIndex": "0x0",
          "type": "mined"
        },
        {
          "address": "0xe0b7927c4af23765cb51314a0e0521a9645f0e2a",
          "blockHash": "0x5a8d9ab0fbfa9d0f8b0a2676ebbb182d9698767728f743f58d7bacc1decde5f5",
          "blockNumber": "0x15b40e",
          "data": "0x000000000000000000000000000000000000000000000000000000003b9aca00",
          "logIndex": "0x0",
          "topics": [
            "0xddf252ad1be2c89b69c2b068fc378daa952ba7f163c4a11628f55a4df523b3ef",
            "0x000000000000000000000000f70d67f47444dd538ab95ddc14ab15b1908cb0d9",
            "0x000000000000000000000000bae4151a946f273a034dc380149f02c4c34aa263"
          ],
          "transactionHash": "0xb21168aea7f6477afba6252a560fbcd361c6bc6bf26dbeed95bf21bcc9922e1b",
          "transactionIndex": "0x0",
          "transactionLogIndex": "0x0",
          "type": "mined"
        },
        {
          "address": "0xe0b7927c4af23765cb51314a0e0521a9645f0e2a",
          "blockHash": "0x44131b8cf92ebd02cfd453ad5937d8dc8c50efb93e15e768f9edc6493e28d124",
          "blockNumber": "0x15b40f",
          "data": "0x000000000000000000000000000000000000000000000000000000003b9aca00",
          "logIndex": "0x0",
          "topics": [
            "0xddf252ad1be2c89b69c2b068fc378daa952ba7f163c4a11628f55a4df523b3ef",
            "0x000000000000000000000000f422c63501ff1f9f361439f9c126a6a24cb14169",
            "0x0000000000000000000000009808b5053bc60f4b71ce80e80a67c67cb0e15d66"
          ],
          "transactionHash": "0xb0300e396a3d841962d3366b4ca737ceb73480cf1f0126e602783854c25f8a84",
          "transactionIndex": "0x1",
          "transactionLogIndex": "0x0",
          "type": "mined"
        },
        {
          "address": "0xe0b7927c4af23765cb51314a0e0521a9645f0e2a",
          "blockHash": "0x44131b8cf92ebd02cfd453ad5937d8dc8c50efb93e15e768f9edc6493e28d124",
          "blockNumber": "0x15b40f",
          "data": "0x000000000000000000000000000000000000000000000000000005bd294efc00",
          "logIndex": "0x1",
          "topics": [
            "0xddf252ad1be2c89b69c2b068fc378daa952ba7f163c4a11628f55a4df523b3ef",
            "0x0000000000000000000000001f14c8687f345f99c99a5d169ffa153af7b89840",
            "0x0000000000000000000000002807955aef18ee85d65cd8322c39cbbfa87b2ac8"
          ],
          "transactionHash": "0xe2f3c5b1254c0b30afb2ac9f597d1bc437aa70bfb8cba794251049fd3c621c37",
          "transactionIndex": "0x5",
          "transactionLogIndex": "0x0",
          "type": "mined"
        },
        {
          "address": "0xe0b7927c4af23765cb51314a0e0521a9645f0e2a",
          "blockHash": "0xcfc49b1acf85f777bf2066e485712688e81af8d0fb97284c716f36a603fc36d9",
          "blockNumber": "0x15b410",
          "data": "0x000000000000000000000000000000000000000000000000000000a54f4c3c00",
          "logIndex": "0x0",
          "topics": [
            "0xddf252ad1be2c89b69c2b068fc378daa952ba7f163c4a11628f55a4df523b3ef",
            "0x0000000000000000000000009f73bc871764c879fd9e0f524278373fa7875068",
            "0x00000000000000000000000023c501b21ca54501b0472f3c08b2d26790045ead"
          ],
          "transactionHash": "0x0a2af79adf2ff644672f900e8e9e15508fc2c5523cea875dd923b34d331735f9",
          "transactionIndex": "0x2",
          "transactionLogIndex": "0x0",
          "type": "mined"
        },
        {
          "address": "0xe0b7927c4af23765cb51314a0e0521a9645f0e2a",
          "blockHash": "0x2e3b5d1082dc92841fff8681b4e4ad83317b08ee3793358a2127e6bf5cdc6f25",
          "blockNumber": "0x15b416",
          "data": "0x000000000000000000000000000000000000000000000000000000003b9aca00",
          "logIndex": "0x2",
          "topics": [
            "0xddf252ad1be2c89b69c2b068fc378daa952ba7f163c4a11628f55a4df523b3ef",
            "0x000000000000000000000000264868229f341d77ea4c45369e76d0bf99dfd4b0",
            "0x0000000000000000000000009ef2cb3e705523ec1705faadcf5d3d9bb1a553e7"
          ],
          "transactionHash": "0x5433a41948e726203133309b5a2455ad1122d729b7c218773569229e1349625f",
          "transactionIndex": "0x1",
          "transactionLogIndex": "0x0",
          "type": "mined"
        },
        {
          "address": "0xe0b7927c4af23765cb51314a0e0521a9645f0e2a",
          "blockHash": "0xd4a28266221d283ed57044e954add4e64442c4be2de594fc0b02be47c7b390a6",
          "blockNumber": "0x15b418",
          "data": "0x000000000000000000000000000000000000000000000000000000746a528800",
          "logIndex": "0x0",
          "topics": [
            "0xddf252ad1be2c89b69c2b068fc378daa952ba7f163c4a11628f55a4df523b3ef",
            "0x00000000000000000000000044b260e868a0209da2be1244df1b7bc17b1f27da",
            "0x000000000000000000000000f815599453108e9d0e3d4484aa09a2ee161a24cd"
          ],
          "transactionHash": "0xc6d72c1eba708d350aff947e3367aae1c39298045eea0ddfd3f86353fdb90d3e",
          "transactionIndex": "0x0",
          "transactionLogIndex": "0x0",
          "type": "mined"
        },
        {
          "address": "0xe0b7927c4af23765cb51314a0e0521a9645f0e2a",
          "blockHash": "0x3836e627543a8e6242ba88745461a3b8367faa082aa008e34ba0cafcfdbd7c52",
          "blockNumber": "0x15b419",
          "data": "0x000000000000000000000000000000000000000000000000000000027d2c7480",
          "logIndex": "0x0",
          "topics": [
            "0xddf252ad1be2c89b69c2b068fc378daa952ba7f163c4a11628f55a4df523b3ef",
            "0x000000000000000000000000541040343ec32f1ec108197c3a6cb1a89280cd39",
            "0x000000000000000000000000d052120b48d55b0fe2076e2dab81845123ffc288"
          ],
          "transactionHash": "0x7b3eeef9f296db8ff999d0d31af1746b93189c58dd604c3d4ed32724160df1f2",
          "transactionIndex": "0x1",
          "transactionLogIndex": "0x0",
          "type": "mined"
        },
        {
          "address": "0xe0b7927c4af23765cb51314a0e0521a9645f0e2a",
          "blockHash": "0x683474a221ac6e51fa16d56b84a08e8c0a3a9627b1526ef009227449d63829c1",
          "blockNumber": "0x15b421",
          "data": "0x000000000000000000000000000000000000000000000000000000174876e800",
          "logIndex": "0x0",
          "topics": [
            "0xddf252ad1be2c89b69c2b068fc378daa952ba7f163c4a11628f55a4df523b3ef",
            "0x000000000000000000000000f70d67f47444dd538ab95ddc14ab15b1908cb0d9",
            "0x000000000000000000000000bae4151a946f273a034dc380149f02c4c34aa263"
          ],
          "transactionHash": "0xefd413c09c9fec97fb8527ed1c7868762404f903d1934c2bbf6d853f236e4e54",
          "transactionIndex": "0x0",
          "transactionLogIndex": "0x0",
          "type": "mined"
        },
        {
          "address": "0xe0b7927c4af23765cb51314a0e0521a9645f0e2a",
          "blockHash": "0x21c8fc91e625c600dce1d4823dd1f06859d5ccbea995ff8facd602c67254ed5a",
          "blockNumber": "0x15b422",
          "data": "0x000000000000000000000000000000000000000000000000000000012a05f200",
          "logIndex": "0x0",
          "topics": [
            "0xddf252ad1be2c89b69c2b068fc378daa952ba7f163c4a11628f55a4df523b3ef",
            "0x000000000000000000000000af078ae030266ad29c156ed6e57fee912f90745c",
            "0x0000000000000000000000007b5846b5d8fabba39a3713488dc75303a7640fac"
          ],
          "transactionHash": "0x588db73557a10e78c5bf98fc1d723f507e41a58edd989b314bbf78e47ff7f663",
          "transactionIndex": "0x0",
          "transactionLogIndex": "0x0",
          "type": "mined"
        },
        {
          "address": "0xe0b7927c4af23765cb51314a0e0521a9645f0e2a",
          "blockHash": "0x7d4792a418c44b6115051b2777c35140128118c8ae1eb1c0e22618688379bbfc",
          "blockNumber": "0x15b423",
          "data": "0x00000000000000000000000000000000000000000000000000000341312584e0",
          "logIndex": "0x0",
          "topics": [
            "0xddf252ad1be2c89b69c2b068fc378daa952ba7f163c4a11628f55a4df523b3ef",
            "0x0000000000000000000000007abb10f5bd9bc33b8ec1a82d64b55b6b18777541",
            "0x00000000000000000000000036a3b80cb331daa22baf0d4f0758801ab7b962dc"
          ],
          "transactionHash": "0x2602fc4bb6226055cb801e076a1ea289ac64915504a43a5c227957ab539b59b5",
          "transactionIndex": "0x0",
          "transactionLogIndex": "0x0",
          "type": "mined"
        },
        {
          "address": "0xe0b7927c4af23765cb51314a0e0521a9645f0e2a",
          "blockHash": "0x3311a60f8cbe476e6b7c4a360d89713f4e992f2ef9519e0a48cb57d9e092307b",
          "blockNumber": "0x15b427",
          "data": "0x0000000000000000000000000000000000000000000000000000003a77f443c0",
          "logIndex": "0x0",
          "topics": [
            "0xddf252ad1be2c89b69c2b068fc378daa952ba7f163c4a11628f55a4df523b3ef",
            "0x000000000000000000000000e007064754292764256477ee26aa1f0cbaccc3d9",
            "0x000000000000000000000000d731b6240433336acb00b8c8d7615bce19b3114a"
          ],
          "transactionHash": "0x374b71228922c7f3b1ca4755fede504cdb8c939b00c8df7b80fc2461bb037d39",
          "transactionIndex": "0x1",
          "transactionLogIndex": "0x0",
          "type": "mined"
        },
        {
          "address": "0xe0b7927c4af23765cb51314a0e0521a9645f0e2a",
          "blockHash": "0x61d0ab7ae5265cf84354041917079b14e3f95a07856c30aad9904423c9639c85",
          "blockNumber": "0x15b42a",
          "data": "0x0000000000000000000000000000000000000000000000000000271b4679fd00",
          "logIndex": "0x2",
          "topics": [
            "0xddf252ad1be2c89b69c2b068fc378daa952ba7f163c4a11628f55a4df523b3ef",
            "0x000000000000000000000000713b61b15c217ae935540b07842c8f44e6cd243b",
            "0x00000000000000000000000067d57ea319c8b68172c7ebd94795c1a770e91c55"
          ],
          "transactionHash": "0x612db1d1edf80f5c168623621dadf0c0ed5ca160c231782d8f0d1f136d6275ba",
          "transactionIndex": "0x2",
          "transactionLogIndex": "0x0",
          "type": "mined"
        },
        {
          "address": "0xe0b7927c4af23765cb51314a0e0521a9645f0e2a",
          "blockHash": "0x4bd7040a3e73c47c0b8ced6e2ce42c0824568bccbe0cb2dca22f6bd5a5add602",
          "blockNumber": "0x15b42b",
          "data": "0x00000000000000000000000000000000000000000000000000000002540be400",
          "logIndex": "0x1",
          "topics": [
            "0xddf252ad1be2c89b69c2b068fc378daa952ba7f163c4a11628f55a4df523b3ef",
            "0x00000000000000000000000055d1554b08a5311c5c0a0b6464162192f9d2f884",
            "0x00000000000000000000000009b1f1afe588830f853c6200e7535017e703e8aa"
          ],
          "transactionHash": "0x8d9faabaf8e236afa09b9dedcea993c980ebdc05a139d66a6b754eb762f6c517",
          "transactionIndex": "0x8",
          "transactionLogIndex": "0x0",
          "type": "mined"
        },
        {
          "address": "0xe0b7927c4af23765cb51314a0e0521a9645f0e2a",
          "blockHash": "0xec42e67682d9ac7bf0ef0f38b1bb9121efd1fc542f3f7e06b67daa7a50e9d5e7",
          "blockNumber": "0x15b430",
          "data": "0x00000000000000000000000000000000000000000000000000000005d21dba00",
          "logIndex": "0x1",
          "topics": [
            "0xddf252ad1be2c89b69c2b068fc378daa952ba7f163c4a11628f55a4df523b3ef",
            "0x0000000000000000000000002b14cdb407fd835332280654ce3db802ca71266a",
            "0x000000000000000000000000ab7b912f451d61f98a7f066ffe6a4aaf62c9e147"
          ],
          "transactionHash": "0x96edfa5bd570ce534cb9ed66343e76f89960c6dd33c5f18c7d6c993c0d9de56f",
          "transactionIndex": "0x0",
          "transactionLogIndex": "0x1",
          "type": "mined"
        },
        {
          "address": "0xe0b7927c4af23765cb51314a0e0521a9645f0e2a",
          "blockHash": "0xec42e67682d9ac7bf0ef0f38b1bb9121efd1fc542f3f7e06b67daa7a50e9d5e7",
          "blockNumber": "0x15b430",
          "data": "0x000000000000000000000000000000000000000000000000000000355176b200",
          "logIndex": "0x2",
          "topics": [
            "0xddf252ad1be2c89b69c2b068fc378daa952ba7f163c4a11628f55a4df523b3ef",
            "0x000000000000000000000000264868229f341d77ea4c45369e76d0bf99dfd4b0",
            "0x0000000000000000000000009ef2cb3e705523ec1705faadcf5d3d9bb1a553e7"
          ],
          "transactionHash": "0x2dab01fd2cb43f0b66a85610e687cfe97af42696c03c85d182368c30ae048d15",
          "transactionIndex": "0x5",
          "transactionLogIndex": "0x0",
          "type": "mined"
        },
        {
          "address": "0xe0b7927c4af23765cb51314a0e0521a9645f0e2a",
          "blockHash": "0x2a103026f31fda50a6cbbcd845aee5b72673437531639b5c29190886f0156123",
          "blockNumber": "0x15b435",
          "data": "0x000000000000000000000000000000000000000000000000000000524966eb80",
          "logIndex": "0x0",
          "topics": [
            "0xddf252ad1be2c89b69c2b068fc378daa952ba7f163c4a11628f55a4df523b3ef",
            "0x00000000000000000000000055d1554b08a5311c5c0a0b6464162192f9d2f884",
            "0x00000000000000000000000009b1f1afe588830f853c6200e7535017e703e8aa"
          ],
          "transactionHash": "0xdf14149e57d95b07ae27d4b4871da10cda817ca764eea9816b3f6a83f3b61518",
          "transactionIndex": "0x4",
          "transactionLogIndex": "0x0",
          "type": "mined"
        },
        {
          "address": "0xe0b7927c4af23765cb51314a0e0521a9645f0e2a",
          "blockHash": "0x6ab1daf0c076488737a6a2877263eaa6f864b6a0bbca080078f6f40b166598b3",
          "blockNumber": "0x15b437",
          "data": "0x000000000000000000000000000000000000000000000000000000fbec39c400",
          "logIndex": "0x1",
          "topics": [
            "0xddf252ad1be2c89b69c2b068fc378daa952ba7f163c4a11628f55a4df523b3ef",
            "0x0000000000000000000000002b14cdb407fd835332280654ce3db802ca71266a",
            "0x000000000000000000000000ab7b912f451d61f98a7f066ffe6a4aaf62c9e147"
          ],
          "transactionHash": "0x37070ad078c2bc6f147b0458e1d812662e78af82ad56a51533103699ff19819c",
          "transactionIndex": "0x0",
          "transactionLogIndex": "0x1",
          "type": "mined"
        },
        {
          "address": "0xe0b7927c4af23765cb51314a0e0521a9645f0e2a",
          "blockHash": "0x25bd9af2737381ec407767b33b175047e50bf9bb14bd9b23e2067edc152c93e1",
          "blockNumber": "0x15b43a",
          "data": "0x000000000000000000000000000000000000000000000000000000003b9aca00",
          "logIndex": "0x0",
          "topics": [
            "0xddf252ad1be2c89b69c2b068fc378daa952ba7f163c4a11628f55a4df523b3ef",
            "0x00000000000000000000000093baae123ca2f2dc25e651cda868bbe435b572a7",
            "0x0000000000000000000000006abf3870a5f549bcc9d96ba9168174b8cf492ad2"
          ],
          "transactionHash": "0x257037cf460d8c56d25e0bcd7105d85449eea96faea3872793ca517398e54fc8",
          "transactionIndex": "0x4",
          "transactionLogIndex": "0x0",
          "type": "mined"
        },
        {
          "address": "0xe0b7927c4af23765cb51314a0e0521a9645f0e2a",
          "blockHash": "0x45afe5316da6b4d979b0a05ea5b006ee61671f3227850253c88b10a77eb7a01b",
          "blockNumber": "0x15b43c",
          "data": "0x00000000000000000000000000000000000000000000000000000013997ec280",
          "logIndex": "0x0",
          "topics": [
            "0xddf252ad1be2c89b69c2b068fc378daa952ba7f163c4a11628f55a4df523b3ef",
            "0x0000000000000000000000009128814b9b7dc31cae275e860196af35da6967ea",
            "0x000000000000000000000000b951b98d3cca83eb1471a63001d5337368cac118"
          ],
          "transactionHash": "0x21f7897e69be6d82d60956a45511b96dcf30cc35c833a76cf085ba815f71cd1c",
          "transactionIndex": "0x1",
          "transactionLogIndex": "0x0",
          "type": "mined"
        },
        {
          "address": "0xe0b7927c4af23765cb51314a0e0521a9645f0e2a",
          "blockHash": "0x0ab468403cec2d06b1306cf0ad748def833da3489f21e9b09c62d6570cf29bb7",
          "blockNumber": "0x15b43e",
          "data": "0x00000000000000000000000000000000000000000000000000000006c088e200",
          "logIndex": "0x0",
          "topics": [
            "0xddf252ad1be2c89b69c2b068fc378daa952ba7f163c4a11628f55a4df523b3ef",
            "0x000000000000000000000000e81a34d6551e4456a10c2b8c3a8536894034eb70",
            "0x0000000000000000000000009bb3dea7023688b4cf122494192f57cf5452fa12"
          ],
          "transactionHash": "0x290b3f5cc3ace694281b53a10649ea8ec34fef9a3de250d92ed41c6fa32b82d2",
          "transactionIndex": "0x3",
          "transactionLogIndex": "0x0",
          "type": "mined"
        },
        {
          "address": "0xe0b7927c4af23765cb51314a0e0521a9645f0e2a",
          "blockHash": "0x15a5884e24bb60a156a66e737826358b36a856cd238823bc1fd52d1f89b2a703",
          "blockNumber": "0x15b444",
          "data": "0x0000000000000000000000000000000000000000000000000000002908575400",
          "logIndex": "0x0",
          "topics": [
            "0xddf252ad1be2c89b69c2b068fc378daa952ba7f163c4a11628f55a4df523b3ef",
            "0x000000000000000000000000af078ae030266ad29c156ed6e57fee912f90745c",
            "0x0000000000000000000000007b5846b5d8fabba39a3713488dc75303a7640fac"
          ],
          "transactionHash": "0xd8ecbbc686d594a966b9a3d2792c10834f17ea2100cf4281e0b5287e7f28b01c",
          "transactionIndex": "0x0",
          "transactionLogIndex": "0x0",
          "type": "mined"
        },
        {
          "address": "0xe0b7927c4af23765cb51314a0e0521a9645f0e2a",
          "blockHash": "0x6c4adad559a1d8f11dd6a05ad953f725227c6f8e9c5441c35422e90a33e07fe6",
          "blockNumber": "0x15b449",
          "data": "0x00000000000000000000000000000000000000000000000000000000000f4240",
          "logIndex": "0x0",
          "topics": [
            "0xddf252ad1be2c89b69c2b068fc378daa952ba7f163c4a11628f55a4df523b3ef",
            "0x0000000000000000000000007280cad72a01480e38ed679cb7c6f64e0c7140c7",
            "0x0000000000000000000000008433bb1c691fa9c821277ac3fa2cae7414d265f2"
          ],
          "transactionHash": "0x34b1b42abd1e11171a09bab4c1f45e86f7137f53482324ecf4c0041de40e643e",
          "transactionIndex": "0x1",
          "transactionLogIndex": "0x0",
          "type": "mined"
        },
        {
          "address": "0xe0b7927c4af23765cb51314a0e0521a9645f0e2a",
          "blockHash": "0x6c4adad559a1d8f11dd6a05ad953f725227c6f8e9c5441c35422e90a33e07fe6",
          "blockNumber": "0x15b449",
          "data": "0x000000000000000000000000000000000000000000000000000000003b9aca00",
          "logIndex": "0x1",
          "topics": [
            "0xddf252ad1be2c89b69c2b068fc378daa952ba7f163c4a11628f55a4df523b3ef",
            "0x00000000000000000000000044b260e868a0209da2be1244df1b7bc17b1f27da",
            "0x000000000000000000000000f815599453108e9d0e3d4484aa09a2ee161a24cd"
          ],
          "transactionHash": "0xd37a9ea30ad25e496438ea053dbc569017bfd4c3084d001984497bf45307914f",
          "transactionIndex": "0x3",
          "transactionLogIndex": "0x0",
          "type": "mined"
        }
      ],
      "id": 1
    }
  }
}
