{
  "d4254dfd429b1c7ab5e88f06e9728670": {
    "options": {
      "jsonrpc": "2.0",
      "method": "web3_sha3",
      "params": [
        "0x68656c6c6f20776f726c64"
      ],
      "id": 64
    },
    "results": {
      "jsonrpc": "2.0",
      "result": "0x47173285a8d7341e5e972fc677286384f802f8ef42a5ec5f03bbfa254cb01fad",
      "id": 64
    }
  },
  "c24f0caaf6d10f03c61a06f624d0e2a7": {
    "options": {
      "jsonrpc": "2.0",
      "method": "net_version",
      "params": [],
      "id": 67
    },
    "results": {
      "jsonrpc": "2.0",
      "result": "1",
      "id": 67
    }
  },
  "26071772a161286619330a5d365e1bba": {
    "options": {
      "jsonrpc": "2.0",
      "method": "eth_protocolVersion",
      "params": [],
      "id": 67
    },
    "results": {
      "jsonrpc": "2.0",
      "result": "63",
      "id": 67
    }
  },
  "4008108986c1a2a8824daae5cc43370a": {
    "options": {
      "jsonrpc": "2.0",
      "method": "eth_getCode",
      "params": [
        "0x5c40ef6f527f4fba68368774e6130ce6515123f2",
        "latest"
      ],
      "id": 1
    },
    "results": {
      "jsonrpc": "2.0",
      "result": "0x606060405236156100825760e060020a6000350463095ea7b3811461008a57806318160ddd146100d057806323b872dd146100d95780633fb27b851461010b57806370a0823114610141578063884b5dc2146101595780638da5cb5b146101d4578063a9059cbb146101e6578063dd62ed3e14610215578063e4b203ef1461023a575b61024e610002565b33600160a060020a03908116600090815260026020908152604080832060043594909416835292905220602435905560015b604080519115158252519081900360200190f35b61025060005481565b6100bc600435602435604435600160a060020a0383166000908152600160205260408120548290101561027f57610002565b61024e600354600160a060020a039081163391909116141580610137575060035460a060020a900460ff165b1561036457610002565b61025060043560016020526000908152604090205481565b6040805160048035808201356020818102858101820190965281855261024e9593946024949093850192918291908501908490808284375094965050505050505060035460009081908190600160a060020a0390811633919091161415806101ca575060035460a060020a900460ff165b1561038a57610002565b610262600354600160a060020a031681565b61024e600435602435600160a060020a0333166000908152600160205260409020548190101561042b57610002565b6002602090815260043560009081526040808220909252602435815220546102509081565b6100bc60035460ff60a060020a9091041681565b005b60408051918252519081900360200190f35b60408051600160a060020a03929092168252519081900360200190f35b600160a060020a03831660009081526001602052604090205480830110156102a657610002565b600160a060020a03848116600090815260026020908152604080832033909416835292905220548211156102d957610002565b600160a060020a03848116600081815260016020908152604080832080548890039055878516808452818420805489019055848452600283528184203390961684529482529182902080548790039055815186815291517fddf252ad1be2c89b69c2b068fc378daa952ba7f163c4a11628f55a4df523b3ef9281900390910190a35060019392505050565b6003805474ff0000000000000000000000000000000000000000191660a060020a179055565b600092505b835183101561042557600160a060020a0384848151811015610002579060200190602002015116915060a060020a84848151811015610002576020908102909101810151600160a060020a0385166000908152600190925260408220549290049250141561041957600160a060020a03821660009081526001602052604081208290558054820190555b6001929092019161038f565b50505050565b600160a060020a038216600090815260016020526040902054818101101561045257610002565b600160a060020a03338116600081815260016020908152604080832080548790039055938616808352918490208054860190558351858152935191937fddf252ad1be2c89b69c2b068fc378daa952ba7f163c4a11628f55a4df523b3ef929081900390910190a3505056",
      "id": 1
    }
  },
  "aecda9f90d59df267abbc38fc1a96dd7": {
    "options": {
      "jsonrpc": "2.0",
      "method": "eth_getStorageAt",
      "params": [
        "0x295a70b2de5e3953354a6a8344e616ed314d7251",
        "0x6661e9d6d8b923d5bbaab1b96e1dd51ff6ea2a93520fdc9eb75d059238b8c5e9",
        "latest"
      ],
      "id": 1
    },
    "results": {
      "jsonrpc": "2.0",
      "result": "0x0000000000000000000000000000000000000000000000000000000000000000",
      "id": 1
    }
  },
  "a72fdad26af83c98c24e1e8781d3e49f": {
    "options": {
      "jsonrpc": "2.0",
      "method": "eth_getBlockTransactionCountByHash",
      "params": [
        "0x0d31621c4902fb957e30149d902820c5a4e567d76e5703831a0a3becfdd4fba5"
      ],
      "id": 1
    },
    "results": {
      "jsonrpc": "2.0",
      "result": "0x6",
      "id": 1
    }
  },
  "777c05e613578ad0714d9ad2f151a74b": {
    "options": {
      "jsonrpc": "2.0",
      "method": "eth_getBlockTransactionCountByNumber",
      "params": [
        "0x3702a2"
      ],
      "id": 1
    },
    "results": {
      "jsonrpc": "2.0",
      "result": "0x6",
      "id": 1
    }
  },
  "2cd43bf460b4a712ab477dd20a8fbd07": {
    "options": {
      "jsonrpc": "2.0",
      "method": "eth_getUncleCountByBlockHash",
      "params": [
        "0x7153403dca6b3587aaddc286649426e6089bd36c66935a025cc49a4a02c5fe8f"
      ],
      "id": 1
    },
    "results": {
      "jsonrpc": "2.0",
      "result": "0x1",
      "id": 1
    }
  },
  "8c3bf09d6482280ed314136326eb8e58": {
    "options": {
      "jsonrpc": "2.0",
      "method": "eth_getUncleCountByBlockNumber",
      "params": [
        "0x370289"
      ],
      "id": 1
    },
    "results": {
      "jsonrpc": "2.0",
      "result": "0x1",
      "id": 1
    }
  },
  "8493a71fc608ddaed68843a812e941b8": {
    "options": {
      "jsonrpc": "2.0",
      "method": "eth_getBlockByHash",
      "params": [
        "0x7153403dca6b3587aaddc286649426e6089bd36c66935a025cc49a4a02c5fe8f",
        false
      ],
      "id": 1
    },
    "results": {
      "jsonrpc": "2.0",
      "result": {
        "author": "0x61c808d82a3ac53231750dadc13c777b59310bd9",
        "difficulty": "0x115cd0ae4e9e7",
        "extraData": "0xe4b883e5bda9e7a59ee4bb99e9b1bc",
        "gasLimit": "0x41738e",
        "gasUsed": "0x2f14d",
        "hash": "0x7153403dca6b3587aaddc286649426e6089bd36c66935a025cc49a4a02c5fe8f",
        "logsBloom": "0x00000000080000000000000000000000000000000400000000000000000000000000000000000000000000000080000008000000000000000000000000000800000000000000000000000000000000008001000000000000000000000000000000000000000000000000000000000000000000000000000000000000000000000000000000000000000000000000000000000000000000000000000000008000000000000040000000000000000000800000000000000000000000000000000000000000400000000000000000000000000000000008000000000000000000000000000000100100000000000000000000000000400000000000000000000000",
        "miner": "0x61c808d82a3ac53231750dadc13c777b59310bd9",
        "mixHash": "0xc690bc7f4b61be0baf9dda4b0a95f6a47a86e6fb13f96a36d28b46cf83c90034",
        "nonce": "0x95653d0c120015b5",
        "number": "0x370289",
        "parentHash": "0x99fc18de44cbf71f430469d9741dcd3ea227bad3f398f930c5c53b31d6b61add",
        "receiptsRoot": "0x5b7e218076f765123fff842006f5a6012f1ab08d6a438ca0faa2c999038acadd",
        "sealFields": [
          "0xa0c690bc7f4b61be0baf9dda4b0a95f6a47a86e6fb13f96a36d28b46cf83c90034",
          "0x8895653d0c120015b5"
        ],
        "sha3Uncles": "0xa35ce310dcaf13fbcede5bfa9a83bf35995efda048af9a47050fd47827684a5c",
        "size": "0x82e",
        "stateRoot": "0x65c51ca26ac008b984b86944e309cb2ddfbcf3da777751230846378a6d0d1b14",
        "timestamp": "0x5900e59b",
        "totalDifficulty": "0xc63af9692a628505b",
        "transactions": [
          "0xfdb4a7fdb24aefd7295d2bfb704d3eadf76081079918f4a6eb9069fa713f401e",
          "0x6ba0b1c8f164c392523f098b7596b1a2e255e3e620bcb01622e0e532e73bc815",
          "0xbd80f567043f60e61ba65a739ddc1e848708d9bcd47402c448435977413ab1e2",
          "0x68fb40345e983d7c16234404e35d0534e8e4e4175c33662f058a148f6988777c",
          "0xe80cadbba11df7365f7b0b46d91c222382bd4fb47d97001d3973d8441b64f713",
          "0x7fd5c3d6089c5263f5e8b2faa11c84065692abe5f80067a982ce34cd38403c26",
          "0x0ac9a7d2ae0e3844e010d3d9deeddfda7ba0c5fe0ae39df60542c3e8d9dd889a",
          "0x66e29586785a8acb94179d66cfc88485f6b4c16cfc3539322f0c57073aae23d0",
          "0x5839f440d0e0d62b76f3ae6063fa6e2e5cf401a180fab80b59cc980e46a027d6"
        ],
        "transactionsRoot": "0x9c1661722bc1c99a5302cb78d7324240525d54c8c847068618dbaac4202c6222",
        "uncles": [
          "0xcbbeeed8ec1184886fb69e65c13db3a92be665654df3607ac6d3d07317dcb489"
        ]
      },
      "id": 1
    }
  },
  "a606095282f3a3c7a66f217e5500efd7": {
    "options": {
      "jsonrpc": "2.0",
      "method": "eth_getBlockByNumber",
      "params": [
        "0x1b4",
        false
      ],
      "id": 1
    },
    "results": {
      "jsonrpc": "2.0",
      "result": {
        "author": "0xbb7b8287f3f0a933474a79eae42cbca977791171",
        "difficulty": "0x4ea3f27bc",
        "extraData": "0x476574682f4c5649562f76312e302e302f6c696e75782f676f312e342e32",
        "gasLimit": "0x1388",
        "gasUsed": "0x0",
        "hash": "0xdc0818cf78f21a8e70579cb46a43643f78291264dda342ae31049421c82d21ae",
        "logsBloom": "0x00000000000000000000000000000000000000000000000000000000000000000000000000000000000000000000000000000000000000000000000000000000000000000000000000000000000000000000000000000000000000000000000000000000000000000000000000000000000000000000000000000000000000000000000000000000000000000000000000000000000000000000000000000000000000000000000000000000000000000000000000000000000000000000000000000000000000000000000000000000000000000000000000000000000000000000000000000000000000000000000000000000000000000000000000000000",
        "miner": "0xbb7b8287f3f0a933474a79eae42cbca977791171",
        "mixHash": "0x4fffe9ae21f1c9e15207b1f472d5bbdd68c9595d461666602f2be20daf5e7843",
        "nonce": "0x689056015818adbe",
        "number": "0x1b4",
        "parentHash": "0xe99e022112df268087ea7eafaf4790497fd21dbeeb6bd7a1721df161a6657a54",
        "receiptsRoot": "0x56e81f171bcc55a6ff8345e692c0f86e5b48e01b996cadc001622fb5e363b421",
        "sealFields": [
          "0xa04fffe9ae21f1c9e15207b1f472d5bbdd68c9595d461666602f2be20daf5e7843",
          "0x88689056015818adbe"
        ],
        "sha3Uncles": "0x1dcc4de8dec75d7aab85b567b6ccd41ad312451b948a7413f0a142fd40d49347",
        "size": "0x220",
        "stateRoot": "0xddc8b0234c2e0cad087c8b389aa7ef01f7d79b2570bccb77ce48648aa61c904d",
        "timestamp": "0x55ba467c",
        "totalDifficulty": "0x78ed983323d",
        "transactions": [],
        "transactionsRoot": "0x56e81f171bcc55a6ff8345e692c0f86e5b48e01b996cadc001622fb5e363b421",
        "uncles": []
      },
      "id": 1
    }
  },
  "d30474b73ac44b254ba5af334b678d09": {
    "options": {
      "jsonrpc": "2.0",
      "method": "eth_getTransactionByHash",
      "params": [
        "0x5839f440d0e0d62b76f3ae6063fa6e2e5cf401a180fab80b59cc980e46a027d6"
      ],
      "id": 1
    },
    "results": {
      "jsonrpc": "2.0",
      "result": {
        "blockHash": "0x7153403dca6b3587aaddc286649426e6089bd36c66935a025cc49a4a02c5fe8f",
        "blockNumber": "0x370289",
        "condition": null,
        "creates": null,
        "from": "0x2a65aca4d5fc5b5c859090a6c34d164135398226",
        "gas": "0x15f90",
        "gasPrice": "0x5d21dba00",
        "hash": "0x5839f440d0e0d62b76f3ae6063fa6e2e5cf401a180fab80b59cc980e46a027d6",
        "input": "0x",
        "networkId": 1,
        "nonce": "0x20fd48",
        "publicKey": "0x4c3eb5e19c71d8245eaaaba21ef8f94a70e9250848d10ade086f893a7a33a06d7063590e9e6ca88f918d7704840d903298fe802b6047fa7f6d09603eba690c39",
        "r": "0xa2e3c04584ba668696bbac6b9480288cffb1993b8983adc9881a774aa33027df",
        "raw": "0xf8708320fd488505d21dba0083015f9094d052e32facf32a667fec9cf22502fdc28182e38b880f5c4d5f44ee50008026a0a2e3c04584ba668696bbac6b9480288cffb1993b8983adc9881a774aa33027dfa0739846f908f7b2d3bad5dcc6aab502b16c4aa14cc76114c34c97e8233b9eae4d",
        "s": "0x739846f908f7b2d3bad5dcc6aab502b16c4aa14cc76114c34c97e8233b9eae4d",
        "standardV": "0x1",
        "to": "0xd052e32facf32a667fec9cf22502fdc28182e38b",
        "transactionIndex": "0x8",
        "v": "0x26",
        "value": "0xf5c4d5f44ee5000"
      },
      "id": 1
    }
  },
  "6729a28f6e041f1f6115f5c3b93affa9": {
    "options": {
      "jsonrpc": "2.0",
      "method": "eth_getTransactionByBlockHashAndIndex",
      "params": [
        "0x7153403dca6b3587aaddc286649426e6089bd36c66935a025cc49a4a02c5fe8f",
        "0x0"
      ],
      "id": 1
    },
    "results": {
      "jsonrpc": "2.0",
      "result": {
        "blockHash": "0x7153403dca6b3587aaddc286649426e6089bd36c66935a025cc49a4a02c5fe8f",
        "blockNumber": "0x370289",
        "condition": null,
        "creates": null,
        "from": "0x2a65aca4d5fc5b5c859090a6c34d164135398226",
        "gas": "0x15f90",
        "gasPrice": "0x5d21dba00",
        "hash": "0xfdb4a7fdb24aefd7295d2bfb704d3eadf76081079918f4a6eb9069fa713f401e",
        "input": "0x",
        "networkId": 1,
        "nonce": "0x20fd40",
        "publicKey": "0x4c3eb5e19c71d8245eaaaba21ef8f94a70e9250848d10ade086f893a7a33a06d7063590e9e6ca88f918d7704840d903298fe802b6047fa7f6d09603eba690c39",
        "r": "0x55ffc67e5e33bb146dfcffa023a0576ffbc0aabbf7a7b4601fab14650946110e",
        "raw": "0xf8708320fd408505d21dba0083015f90941e37413c2f1fd2b1e423a7dda85ae9cf3b285ccd881009e8f30d97ec008026a055ffc67e5e33bb146dfcffa023a0576ffbc0aabbf7a7b4601fab14650946110ea03270bb661c2898e9531d07d4cb751f93e0bd30d737a4c0783c91c254a3d76749",
        "s": "0x3270bb661c2898e9531d07d4cb751f93e0bd30d737a4c0783c91c254a3d76749",
        "standardV": "0x1",
        "to": "0x1e37413c2f1fd2b1e423a7dda85ae9cf3b285ccd",
        "transactionIndex": "0x0",
        "v": "0x26",
        "value": "0x1009e8f30d97ec00"
      },
      "id": 1
    }
  },
  "ae9084e14cf5bfde938ec018b9bd98bd": {
    "options": {
      "jsonrpc": "2.0",
      "method": "eth_getTransactionReceipt",
      "params": [
        "0x5839f440d0e0d62b76f3ae6063fa6e2e5cf401a180fab80b59cc980e46a027d6"
      ],
      "id": 1
    },
    "results": {
      "jsonrpc": "2.0",
      "result": {
        "blockHash": "0x7153403dca6b3587aaddc286649426e6089bd36c66935a025cc49a4a02c5fe8f",
        "blockNumber": "0x370289",
        "contractAddress": null,
        "cumulativeGasUsed": "0x2f14d",
        "gasUsed": "0x5208",
        "logs": [],
        "logsBloom": "0x00000000000000000000000000000000000000000000000000000000000000000000000000000000000000000000000000000000000000000000000000000000000000000000000000000000000000000000000000000000000000000000000000000000000000000000000000000000000000000000000000000000000000000000000000000000000000000000000000000000000000000000000000000000000000000000000000000000000000000000000000000000000000000000000000000000000000000000000000000000000000000000000000000000000000000000000000000000000000000000000000000000000000000000000000000000",
        "root": "0x2e56c18a6f5c859b7aa1ee353229c355bf0d0deb6219b5d0be7c38e65dbe5dc1",
        "transactionHash": "0x5839f440d0e0d62b76f3ae6063fa6e2e5cf401a180fab80b59cc980e46a027d6",
        "transactionIndex": "0x8"
      },
      "id": 1
    }
  },
  "eff5b9fe6099c2f7969e34f1e9717609": {
    "options": {
      "jsonrpc": "2.0",
      "method": "eth_getUncleByBlockHashAndIndex",
      "params": [
        "0x7153403dca6b3587aaddc286649426e6089bd36c66935a025cc49a4a02c5fe8f",
        "0x0"
      ],
      "id": 1
    },
    "results": {
      "jsonrpc": "2.0",
      "result": {
        "author": "0x52bc44d5378309ee2abf1539bf71de1b7d7be3b5",
        "difficulty": "0x115e7c85df5a5",
        "extraData": "0x6e616e6f706f6f6c2e6f7267",
        "gasLimit": "0x419cfd",
        "gasUsed": "0x31067",
        "hash": "0xcbbeeed8ec1184886fb69e65c13db3a92be665654df3607ac6d3d07317dcb489",
        "logsBloom": "0x00000000000000000000000000000000000000000000000000000000000020000000000000100000000000040000000100000000000000000000000000000000000000000000000080000004008000000000000000000000000000000000000001000000000000000000000000000000004000200000000000000100000000000000000100000000004000000000000000000000000000000000000000000000000000001000000000000000000000000000000000000020000000000000000000000000000000000000000000000000000000004000000000120000000000a00000000800000000000000000000000400000000008000000000000000000000",
        "miner": "0x52bc44d5378309ee2abf1539bf71de1b7d7be3b5",
        "mixHash": "0x74eacb7b6ca840257a6fbf411646e9637dd567f2c908744630379223bbe1a2f9",
        "nonce": "0x18e93a001230655b",
        "number": "0x370287",
        "parentHash": "0x020ece6910d87143793e0f4c1da61af052b6492b0f95f82e310b48b8cb98775c",
        "receiptsRoot": "0x991eb321f9aab5defbd33d4daad76d164085b7cec50c015a8ac493de5b0c24ac",
        "sealFields": [
          "0xa074eacb7b6ca840257a6fbf411646e9637dd567f2c908744630379223bbe1a2f9",
          "0x8818e93a001230655b"
        ],
        "sha3Uncles": "0x1dcc4de8dec75d7aab85b567b6ccd41ad312451b948a7413f0a142fd40d49347",
        "size": "0x4dc",
        "stateRoot": "0xabcbe3532e72f47ed834326fb153f7cc0cf2295decfbd0222a34167b280da2f8",
        "timestamp": "0x5900e574",
        "totalDifficulty": "0xc63ad6ad9d2e570cf",
        "transactions": [],
        "transactionsRoot": "0x662235961619fea05c4391a4f61859349bb005988fb3bd43ef5f7948ef777866",
        "uncles": []
      },
      "id": 1
    }
  },
  "94aa5ac2e2ae04bbba184dc3b4baea15": {
    "options": {
      "jsonrpc": "2.0",
      "method": "eth_getUncleByBlockNumberAndIndex",
      "params": [
        "0x370289",
        "0x0"
      ],
      "id": 1
    },
    "results": {
      "jsonrpc": "2.0",
      "result": {
        "author": "0x52bc44d5378309ee2abf1539bf71de1b7d7be3b5",
        "difficulty": "0x115e7c85df5a5",
        "extraData": "0x6e616e6f706f6f6c2e6f7267",
        "gasLimit": "0x419cfd",
        "gasUsed": "0x31067",
        "hash": "0xcbbeeed8ec1184886fb69e65c13db3a92be665654df3607ac6d3d07317dcb489",
        "logsBloom": "0x00000000000000000000000000000000000000000000000000000000000020000000000000100000000000040000000100000000000000000000000000000000000000000000000080000004008000000000000000000000000000000000000001000000000000000000000000000000004000200000000000000100000000000000000100000000004000000000000000000000000000000000000000000000000000001000000000000000000000000000000000000020000000000000000000000000000000000000000000000000000000004000000000120000000000a00000000800000000000000000000000400000000008000000000000000000000",
        "miner": "0x52bc44d5378309ee2abf1539bf71de1b7d7be3b5",
        "mixHash": "0x74eacb7b6ca840257a6fbf411646e9637dd567f2c908744630379223bbe1a2f9",
        "nonce": "0x18e93a001230655b",
        "number": "0x370287",
        "parentHash": "0x020ece6910d87143793e0f4c1da61af052b6492b0f95f82e310b48b8cb98775c",
        "receiptsRoot": "0x991eb321f9aab5defbd33d4daad76d164085b7cec50c015a8ac493de5b0c24ac",
        "sealFields": [
          "0xa074eacb7b6ca840257a6fbf411646e9637dd567f2c908744630379223bbe1a2f9",
          "0x8818e93a001230655b"
        ],
        "sha3Uncles": "0x1dcc4de8dec75d7aab85b567b6ccd41ad312451b948a7413f0a142fd40d49347",
        "size": "0x4dc",
        "stateRoot": "0xabcbe3532e72f47ed834326fb153f7cc0cf2295decfbd0222a34167b280da2f8",
        "timestamp": "0x5900e574",
        "totalDifficulty": "0xc63ad6ad9d2e570cf",
        "transactions": [],
        "transactionsRoot": "0x662235961619fea05c4391a4f61859349bb005988fb3bd43ef5f7948ef777866",
        "uncles": []
      },
      "id": 1
    }
  }
}
